S0110000686F6C6C31366269742E73726563BE
S11300000C9434000C9451000C9451000C94510045
S11300100C9451000C9451000C9451000C94510018
S11300200C9451000C9451000C9451000C947C00DD
S11300300C9451000C9451000C9451000C945100F8
S11300400C9451000C9451000C9451000C945100E8
S11300500C9451000C9451000C9451000C945100D8
S11300600C9451000C94510011241FBECFEFD8E022
S1130070DEBFCDBF11E0A0E0B1E0E0E5F2E002C0F8
S113008005900D92A230B107D9F721E0A2E0B1E0CA
S113009001C01D92A031B207E1F70E94E1000C9467
S11300A026010C9400009093C5008093C40088E15D
S11300B08093C1008EE08093C2000895E0ECF0E0EC
S11300C0908195FFFDCF8093C600089517B881E015
S11300D088B910928000809381008FEF91E0909313
S11300E089008093880082E080936F00789487E68B
S11300F090E00E94530008951F920F920FB60F9242
S113010011242F933F934F935F936F937F938F9318
S11301109F93AF93BF93CF93DF93EF93FF9380E2CB
S11301200E945E004AE050E068E071E080910201C4
S1130130909103010E94E600C8E0D1E088810E940A
S11301405E0089810E945E00809104019091050106
S113015003976CF010920501109204018091000144
S113016090910101909303018093020113C0809147
S11301700401909105010196909305018093040177
S11301808091040190910501039721F410920101DB
S1130190109200011092850010928400FF91EF915B
S11301A0DF91CF91BF91AF919F918F917F916F918B
S11301B05F914F913F912F910F900FBE0F901F9021
S11301C018950E94660080E090E00895453251053C
S11301D020F4423010F00C94F100FB011082CB01AA
S11301E00895BB274A3031F4992322F4BDE2909557
S11301F081959F4F0C94FD00BB27FB015527AA272F
S1130200880F991FAA1FA41710F0A41B839550519F
S1130210B9F7A05DAA3308F0A95DA193009779F717
S1130220B111B1931192CB010C941601DC01FC01C4
S1130230672F71917723E1F7329704C07C916D9316
S113024070836291AE17BF07C8F30895F894FFCF87
S10502500800A0
S9030000FC
