S0160000686F6C6C313662697443706C75732E73726563B2
S11300000C9434000C9446000C9446000C94460066
S11300100C9446000C9446000C9446000C94460044
S11300200C9446000C9446000C9446000C94580022
S11300300C9446000C9446000C9446000C94460024
S11300400C9446000C9446000C9446000C94460014
S11300500C9446000C9446000C9446000C94460004
S11300600C9446000C94460011241FBECFEFD8E038
S1130070DEBFCDBF21E0A0E0B1E001C01D92A230FF
S1130080B207E1F70E946A010C94AA010C940000E3
S11300901092800085E08093810089E09DE3909335
S11300A089008093880082E080936F00789408959B
S11300B01F920F920FB60F9211248F939F938091EA
S11300C0000190910101039728F010920101109210
S11300D0000109C080910001909101010196909363
S11300E001018093000110928500109284009F9179
S11300F08F910F900FBE0F901F9018952F923F92E3
S11301004F925F926F927F928F929F92AF92BF9223
S1130110CF92DF92EF92FF920F931F93CF93DF93CF
S1130120CDB7DEB760970FB6F894DEBF0FBECDBF74
S1130130682E592E5801FE01319680E1DF011D928F
S11301408A95E9F748018E0C9F1C77247394412CFF
S1130150E42EF12C20910001309101014091000125
S113016050910101872D8416950608F4842D882367
S1130170D9F1872D2A153B0508F4842D8823A1F194
S1130180FE013196262C352C80E090E09701082E54
S113019002C0220F331F0A94E2F720FF1CC0DB01C8
S11301A02C9130E0AC014F5F5F4F242335236F0166
S11301B0408151812417350759F0D1010D911C91CB
S11301C0D8014D915C9111974F5F5F4F4D935C93B4
S11301D0D6012D933C9301963296B2E02B0E311C3E
S11301E08830910599F6B6CF60960FB6F894DEBFC5
S11301F00FBECDBFDF91CF911F910F91FF90EF9074
S1130200DF90CF90BF90AF909F908F907F906F9032
S11302105F904F903F902F9008959093C5008093E6
S1130220C40088E18093C1008EE08093C2000895E9
S1130230E0ECF0E0908195FFFDCF8093C600089537
S1130240CF93DF93CDB7DEB7A8970FB6F894DEBF90
S11302500FBECDBFFE01799620E1DF011D922A95E4
S1130260E9F7CF016F017097819391930296EC1592
S1130270FD05D1F780E20E941801EE24E394F12CED
S113028003E010E024E030E041E066E270E0CE01FB
S113029009960E947E008E01075F1F4FD801ED91E1
S11302A0FD918D0180819181181619067CF44AE034
S11302B0BE016F5F7F4F0E94750189810E94180102
S11302C08A810E94180180E20E9418010C151D0504
S11302D089F2E4CF17B881E088B987E690E00E94FC
S11302E00D010E9448000E942001BB274A3031F4CE
S11302F0992322F4BDE2909581959F4F0C9481013E
S1130300BB27FB015527AA27880F991FAA1FA417EB
S113031010F0A41B83955051B9F7A05DAA3308F0DF
S1130320A95DA193009779F7B111B1931192CB0113
S11303300C949A01DC01FC01672F71917723E1F79A
S1130340329704C07C916D9370836291AE17BF079E
S10B0350C8F30895F894FFCFEF
S9030000FC
