:100000000C9434000C9446000C9446000C9446006A
:100010000C9446000C9446000C9446000C94460048
:100020000C9446000C9446000C9446000C945C0022
:100030000C9446000C9446000C9446000C94460028
:100040000C9446000C9446000C9446000C94460018
:100050000C9446000C9446000C9446000C94460008
:100060000C9446000C94460011241FBECFEFD8E03C
:10007000DEBFCDBF21E0A0E0B1E001C01D92A43001
:10008000B207E1F70E94A0010C94E2010C94000079
:100090001092800025E02093810029E03DE3309319
:1000A00089002093880022E020936F007894909339
:1000B00001018093000108951F920F920FB60F92D5
:1000C00011242F933F938F939F93809100019091E0
:1000D000010120910201309103010197281739078E
:1000E00028F0109203011092020109C080910201D0
:1000F0009091030101969093030180930201109265
:100100008500109284009F918F913F912F910F90C5
:100110000FBE0F901F9018952F923F924F925F92B3
:100120006F927F928F929F92AF92BF92CF92DF9207
:10013000EF92FF920F931F93CF93DF93CDB7DEB76C
:1001400062970FB6F894DEBF0FBECDBF1C015B01F6
:100150004901FE01319680E1DF011D928A95E9F7A0
:10016000412C3901600E711E552453946101B0E198
:10017000CB0ED11C042F10E020910201309103011D
:100180008091020190910301452D6816790608F4CB
:1001900040E0442309F44BC0852D2815390508F4A7
:1001A00080E0882309F443C0411009C0F101A19106
:1001B000B1911D921C92EC15FD05C9F7452CFE016D
:1001C00031963A8A298A80E090E09801082E02C090
:1001D000359527950A94E2F720FF1DC0D5012C9193
:1001E00030E0AC014F5F5F4F242335237F01408116
:1001F00051812417350761F0A989BA896D917C91E5
:10020000DB014D915C9111974F5F5F4F4D935C9374
:10021000D7012D933C930196329629893A892E5F16
:100220003F4F3A8B298B8830910579F6A5CF31E085
:10023000431213C0F10180E1280E311CA191B1914C
:100240008D919C91119799230CF401969595879522
:100250008D939C93E215F30589F762960FB6F89497
:10026000DEBF0FBECDBFDF91CF911F910F91FF90E9
:10027000EF90DF90CF90BF90AF909F908F907F9046
:100280006F905F904F903F902F9008959093C5008E
:100290008093C40088E18093C1008EE08093C20007
:1002A0000895E0ECF0E0908195FFFDCF8093C600CB
:1002B0000895CF93DF93CDB7DEB7A8970FB6F89424
:1002C000DEBF0FBECDBFFE01799620E1DF011D929A
:1002D0002A95E9F7CF017F01709781939193029658
:1002E000EE15FF05D1F780E20E94510103E010E016
:1002F00023E030E043E066E270E0CE0109960E9420
:100300008C008E01075F1F4FD801ED91FD918D018B
:1003100080819181181619067CF44AE0BE016F5F56
:100320007F4F0E94AD0189810E9451018A810E9404
:10033000510180E20E9451010E151F05A1F2E4CF88
:1003400017B881E088B987E690E00E94460184E012
:1003500090E00E9448000E945901BB274A3031F4C6
:10036000992322F4BDE2909581959F4F0C94B90199
:10037000BB27FB015527AA27880F991FAA1FA4177F
:1003800010F0A41B83955051B9F7A05DAA3308F073
:10039000A95DA193009779F7B111B1931192CB01A7
:1003A0000C94D201DC01FC01672F71917723E1F7F6
:1003B000329704C07C916D9370836291AE17BF0732
:0803C000C8F30895F894FFCF83
:00000001FF
