S0160000686F6C6C313662697443706C75732E73726563B2
S11300000C9434000C9446000C9446000C94460066
S11300100C9446000C9446000C9446000C94460044
S11300200C9446000C9446000C9446000C94580022
S11300300C9446000C9446000C9446000C94460024
S11300400C9446000C9446000C9446000C94460014
S11300500C9446000C9446000C9446000C94460004
S11300600C9446000C94460011241FBECFEFD8E038
S1130070DEBFCDBF21E0A0E0B1E001C01D92A230FF
S1130080B207E1F70E94F1000C9431010C940000D6
S11300901092800085E08093810089E09DE3909335
S11300A089008093880082E080936F00789408959B
S11300B01F920F920FB60F9211248F939F938091EA
S11300C0000190910101039728F010920101109210
S11300D0000109C080910001909101010196909363
S11300E001018093000110928500109284009F9179
S11300F08F910F900FBE0F901F901895FF920F9342
S11301001F93CF93DF93C0E0D0E000E010E0460FF0
S1130110571F31E0F12C01C0EC01A0910001B09116
S11301200101E0910001F0910101232F4E175F07B7
S113013008F42F2D222389F0232FA617B70708F4DC
S11301402F2D222351F026B1822F817090E0C81701
S1130150D90711F30F5F1F4FDFCFC80199230CF4A8
S1130160019695958795DF91CF911F910F91FF90FF
S113017008959093C5008093C40088E18093C100E2
S11301808EE08093C2000895E0ECF0E0908195FF4A
S1130190FDCF8093C6000895CF93DF93CDB7DEB72C
S11301A028970FB6F894DEBF0FBECDBF80E20E9441
S11301B0C40041E050E063E070E084E090E00E941D
S11301C07E001816190634F44AE0BE016F5F7F4FB3
S11301D00E94FC0089810E94C4008A810E94C4009C
S11301E0E5CF17B881E088B987E690E00E94B900AE
S11301F00E9448000E94CC00BB274A3031F4992366
S113020022F4BDE2909581959F4F0C940801BB2781
S1130210FB015527AA27880F991FAA1FA41710F0BE
S1130220A41B83955051B9F7A05DAA3308F0A95DCA
S1130230A193009779F7B111B1931192CB010C946A
S11302402101DC01FC01672F71917723E1F73297DB
S113025004C07C916D9370836291AE17BF07C8F39D
S10902600895F894FFCF9D
S9030000FC
