S0160000686F6C6C313662697443706C75732E73726563B2
S11300000C9434000C9446000C9446000C94460066
S11300100C9446000C9446000C9446000C94460044
S11300200C9446000C9446000C9446000C945C001E
S11300300C9446000C9446000C9446000C94460024
S11300400C9446000C9446000C9446000C94460014
S11300500C9446000C9446000C9446000C94460004
S11300600C9446000C94460011241FBECFEFD8E038
S1130070DEBFCDBF21E0A0E0B1E001C01D92A430FD
S1130080B207E1F70E9469010C94AB010C940000E3
S11300901092800025E02093810029E03DE3309315
S11300A089002093880022E020936F007894909335
S11300B001018093000108951F920F920FB60F92D1
S11300C011242F933F938F939F93809100019091DC
S11300D0010120910201309103010197281739078A
S11300E028F0109203011092020109C080910201CC
S11300F09091030101969093030180930201109261
S11301008500109284009F918F913F912F910F90C1
S11301100FBE0F901F9018958F929F92AF92BF922F
S1130120CF92DF92EF92FF920F931F93CF93DF93BF
S1130130A0E0B0E020E030E0A12C460F571FFF24E0
S1130140F394E12C8C01085F1F4FBB24B394C12CA2
S11301506894DD24D1F8912C04C02B2D3C2DAD2DB9
S1130160B92DC0910201D0910301E0910201F091F7
S113017003018F2C4E175F0708F48E2C882061F141
S1130180EF2DC617D70708F4EE2DEE2329F1A110A1
S113019009C0FC01C191D19119821882E017F107BD
S11301A0C9F7AF2C2130310549F0EC01E881F98120
S11301B0208131812F5F3F4F31832083129769F271
S11301C0DC011296ED91FC911397208131812F5F10
S11301D03F4F31832083C1CFB1E0AB1212C0FC0189
S11301E00896A191B1912D913C911197332314F468
S11301F02F5F3F4F359527952D933C93E817F907CB
S113020081F7DF91CF911F910F91FF90EF90DF90D5
S1130210CF90BF90AF909F908F9008959093C5001A
S11302208093C40088E18093C1008EE08093C20073
S11302300895E0ECF0E0908195FFFDCF8093C60037
S11302400895CF93DF93CDB7DEB7A8970FB6F89490
S1130250DEBF0FBECDBFFE01799620E1DF011D9206
S11302602A95E9F7CF019F017097819391930296A4
S1130270E217F307D1F77E01B1E1EB0EF11C80E246
S11302800E9419018E01075F1F4F41E050E063E0B7
S113029070E0CE0109960E948C00D801ED91FD9189
S11302A08D0180819181181619067CF44AE0BE0103
S11302B06F5F7F4F0E94760189810E9419018A81B4
S11302C00E94190180E20E9419010E151F05B9F25E
S11302D0DCCF17B881E088B987E690E00E940E0170
S11302E084E090E00E9448000E942101BB274A302C
S11302F031F4992322F4BDE2909581959F4F0C949B
S11303008201BB27FB015527AA27880F991FAA1F23
S1130310A41710F0A41B83955051B9F7A05DAA331C
S113032008F0A95DA193009779F7B111B1931192E7
S1130330CB010C949B01DC01FC01672F71917723A5
S1130340E1F7329704C07C916D9370836291AE178C
S10D0350BF07C8F30895F894FFCF27
S9030000FC
