S0160000686F6C6C313662697443706C75732E73726563B2
S11300000C9434000C9446000C9446000C94460066
S11300100C9446000C9446000C9446000C94460044
S11300200C9446000C9446000C9446000C945C001E
S11300300C9446000C9446000C9446000C94460024
S11300400C9446000C9446000C9446000C94460014
S11300500C9446000C9446000C9446000C94460004
S11300600C9446000C94460011241FBECFEFD8E038
S1130070DEBFCDBF21E0A0E0B1E001C01D92A430FD
S1130080B207E1F70E9495010C94D7010C9400008B
S11300901092800025E02093810029E03DE3309315
S11300A089002093880022E020936F007894909335
S11300B001018093000108951F920F920FB60F92D1
S11300C011242F933F938F939F93809100019091DC
S11300D0010120910201309103010197281739078A
S11300E028F0109203011092020109C080910201CC
S11300F09091030101969093030180930201109261
S11301008500109284009F918F913F912F910F90C1
S11301100FBE0F901F9018952F923F925F926F928F
S11301207F928F929F92AF92BF92CF92DF92EF9283
S1130130FF920F931F93CF93DF93EC01A12CB12C6B
S1130140C12CD12CE12CF12C00E010E0612C4B01EE
S1130150840E951E77247394512C089604C05D0177
S113016061017A018901E0910201F091030140915A
S1130170020150910301A72D8416950608F4A52DBC
S1130180AA2309F451C0472DE617F70708F4452DB3
S1130190442309F449C0611009C0FE01A191B19141
S11301A01D921C92E817F907C9F7672C46B1242F52
S11301B0217030E02017310741F0E881F981408156
S11301C051814F5F5F4F5183408346B1427050E08D
S11301D04E155F0541F0AA81BB81ED91FC91119709
S11301E03196ED93FC93E6B1E4702E2E312C2C1451
S11301F03D0449F00C811D81D801ED91FC911197CA
S11302003196ED93FC93A6B1A870B0E0AA15BB0596
S113021009F4A5CFEE80FF80F701008111810F5F03
S11302201F4F118300839BCFF1E06F1211C0FE01B9
S11302302896A191B1918D919C91119799230CF4D9
S11302400196959587958D939C93CE17DF0789F733
S1130250DF91CF911F910F91FF90EF90DF90CF909E
S1130260BF90AF909F908F907F906F905F903F90E2
S11302702F9008959093C5008093C40088E18093E3
S1130280C1008EE08093C2000895E0ECF0E090811C
S113029095FFFDCF8093C6000895CF93DF93CDB72C
S11302A0DEB7A8970FB6F894DEBF0FBECDBFFE0130
S11302B0799620E1DF011D922A95E9F7CF019F018C
S11302C07097819391930296E217F307D1F77E0119
S11302D0B1E1EB0EF11C80E20E9445018E01075F43
S11302E01F4F41E050E063E070E0CE0109960E94A8
S11302F08C00D801ED91FD918D01808191811816BA
S113030019067CF44AE0BE016F5F7F4F0E94A20190
S113031089810E9445018A810E94450180E20E94F0
S113032045010E151F05B9F2DCCF17B881E088B975
S113033087E690E00E943A0184E090E00E94480041
S11303400E944D01BB274A3031F4992322F4BDE2C7
S1130350909581959F4F0C94AE01BB27FB015527C7
S1130360AA27880F991FAA1FA41710F0A41B83950E
S11303705051B9F7A05DAA3308F0A95DA193009785
S113038079F7B111B1931192CB010C94C701DC013F
S1130390FC01672F71917723E1F7329704C07C91B8
S11303A06D9370836291AE17BF07C8F30895F894F4
S10503B0FFCF79
S9030000FC
